{
  "_format": "hh-sol-artifact-1",
  "contractName": "Dappcord",
  "sourceName": "contracts/Dappcord.sol",
  "abi": [
    {
      "inputs": [
        {
          "internalType": "string",
          "name": "_name",
          "type": "string"
        },
        {
          "internalType": "string",
          "name": "_symbol",
          "type": "string"
        }
      ],
      "stateMutability": "nonpayable",
      "type": "constructor"
    },
    {
      "anonymous": false,
      "inputs": [
        {
          "indexed": true,
          "internalType": "address",
          "name": "owner",
          "type": "address"
        },
        {
          "indexed": true,
          "internalType": "address",
          "name": "approved",
          "type": "address"
        },
        {
          "indexed": true,
          "internalType": "uint256",
          "name": "tokenId",
          "type": "uint256"
        }
      ],
      "name": "Approval",
      "type": "event"
    },
    {
      "anonymous": false,
      "inputs": [
        {
          "indexed": true,
          "internalType": "address",
          "name": "owner",
          "type": "address"
        },
        {
          "indexed": true,
          "internalType": "address",
          "name": "operator",
          "type": "address"
        },
        {
          "indexed": false,
          "internalType": "bool",
          "name": "approved",
          "type": "bool"
        }
      ],
      "name": "ApprovalForAll",
      "type": "event"
    },
    {
      "anonymous": false,
      "inputs": [
        {
          "indexed": true,
          "internalType": "address",
          "name": "from",
          "type": "address"
        },
        {
          "indexed": true,
          "internalType": "address",
          "name": "to",
          "type": "address"
        },
        {
          "indexed": true,
          "internalType": "uint256",
          "name": "tokenId",
          "type": "uint256"
        }
      ],
      "name": "Transfer",
      "type": "event"
    },
    {
      "inputs": [
        {
          "internalType": "address",
          "name": "to",
          "type": "address"
        },
        {
          "internalType": "uint256",
          "name": "tokenId",
          "type": "uint256"
        }
      ],
      "name": "approve",
      "outputs": [],
      "stateMutability": "nonpayable",
      "type": "function"
    },
    {
      "inputs": [
        {
          "internalType": "address",
          "name": "owner",
          "type": "address"
        }
      ],
      "name": "balanceOf",
      "outputs": [
        {
          "internalType": "uint256",
          "name": "",
          "type": "uint256"
        }
      ],
      "stateMutability": "view",
      "type": "function"
    },
    {
      "inputs": [
        {
          "internalType": "uint256",
          "name": "",
          "type": "uint256"
        }
      ],
      "name": "channels",
      "outputs": [
        {
          "internalType": "uint256",
          "name": "id",
          "type": "uint256"
        },
        {
          "internalType": "string",
          "name": "name",
          "type": "string"
        },
        {
          "internalType": "uint256",
          "name": "cost",
          "type": "uint256"
        }
      ],
      "stateMutability": "view",
      "type": "function"
    },
    {
      "inputs": [
        {
          "internalType": "string",
          "name": "_name",
          "type": "string"
        },
        {
          "internalType": "uint256",
          "name": "_cost",
          "type": "uint256"
        }
      ],
      "name": "creatChannel",
      "outputs": [],
      "stateMutability": "nonpayable",
      "type": "function"
    },
    {
      "inputs": [
        {
          "internalType": "uint256",
          "name": "tokenId",
          "type": "uint256"
        }
      ],
      "name": "getApproved",
      "outputs": [
        {
          "internalType": "address",
          "name": "",
          "type": "address"
        }
      ],
      "stateMutability": "view",
      "type": "function"
    },
    {
      "inputs": [
        {
          "internalType": "address",
          "name": "owner",
          "type": "address"
        },
        {
          "internalType": "address",
          "name": "operator",
          "type": "address"
        }
      ],
      "name": "isApprovedForAll",
      "outputs": [
        {
          "internalType": "bool",
          "name": "",
          "type": "bool"
        }
      ],
      "stateMutability": "view",
      "type": "function"
    },
    {
      "inputs": [],
      "name": "name",
      "outputs": [
        {
          "internalType": "string",
          "name": "",
          "type": "string"
        }
      ],
      "stateMutability": "view",
      "type": "function"
    },
    {
      "inputs": [],
      "name": "owner",
      "outputs": [
        {
          "internalType": "address",
          "name": "",
          "type": "address"
        }
      ],
      "stateMutability": "view",
      "type": "function"
    },
    {
      "inputs": [
        {
          "internalType": "uint256",
          "name": "tokenId",
          "type": "uint256"
        }
      ],
      "name": "ownerOf",
      "outputs": [
        {
          "internalType": "address",
          "name": "",
          "type": "address"
        }
      ],
      "stateMutability": "view",
      "type": "function"
    },
    {
      "inputs": [
        {
          "internalType": "address",
          "name": "from",
          "type": "address"
        },
        {
          "internalType": "address",
          "name": "to",
          "type": "address"
        },
        {
          "internalType": "uint256",
          "name": "tokenId",
          "type": "uint256"
        }
      ],
      "name": "safeTransferFrom",
      "outputs": [],
      "stateMutability": "nonpayable",
      "type": "function"
    },
    {
      "inputs": [
        {
          "internalType": "address",
          "name": "from",
          "type": "address"
        },
        {
          "internalType": "address",
          "name": "to",
          "type": "address"
        },
        {
          "internalType": "uint256",
          "name": "tokenId",
          "type": "uint256"
        },
        {
          "internalType": "bytes",
          "name": "data",
          "type": "bytes"
        }
      ],
      "name": "safeTransferFrom",
      "outputs": [],
      "stateMutability": "nonpayable",
      "type": "function"
    },
    {
      "inputs": [
        {
          "internalType": "address",
          "name": "operator",
          "type": "address"
        },
        {
          "internalType": "bool",
          "name": "approved",
          "type": "bool"
        }
      ],
      "name": "setApprovalForAll",
      "outputs": [],
      "stateMutability": "nonpayable",
      "type": "function"
    },
    {
      "inputs": [
        {
          "internalType": "bytes4",
          "name": "interfaceId",
          "type": "bytes4"
        }
      ],
      "name": "supportsInterface",
      "outputs": [
        {
          "internalType": "bool",
          "name": "",
          "type": "bool"
        }
      ],
      "stateMutability": "view",
      "type": "function"
    },
    {
      "inputs": [],
      "name": "symbol",
      "outputs": [
        {
          "internalType": "string",
          "name": "",
          "type": "string"
        }
      ],
      "stateMutability": "view",
      "type": "function"
    },
    {
      "inputs": [
        {
          "internalType": "uint256",
          "name": "tokenId",
          "type": "uint256"
        }
      ],
      "name": "tokenURI",
      "outputs": [
        {
          "internalType": "string",
          "name": "",
          "type": "string"
        }
      ],
      "stateMutability": "view",
      "type": "function"
    },
    {
      "inputs": [],
      "name": "totalchannels",
      "outputs": [
        {
          "internalType": "uint256",
          "name": "",
          "type": "uint256"
        }
      ],
      "stateMutability": "view",
      "type": "function"
    },
    {
      "inputs": [
        {
          "internalType": "address",
          "name": "from",
          "type": "address"
        },
        {
          "internalType": "address",
          "name": "to",
          "type": "address"
        },
        {
          "internalType": "uint256",
          "name": "tokenId",
          "type": "uint256"
        }
      ],
      "name": "transferFrom",
      "outputs": [],
      "stateMutability": "nonpayable",
      "type": "function"
    }
  ],
  "bytecode": "0x60806040523480156200001157600080fd5b5060405162002ef938038062002ef983398181016040528101906200003791906200023b565b818181600090816200004a91906200050b565b5080600190816200005c91906200050b565b50505033600760006101000a81548173ffffffffffffffffffffffffffffffffffffffff021916908373ffffffffffffffffffffffffffffffffffffffff1602179055505050620005f2565b6000604051905090565b600080fd5b600080fd5b600080fd5b600080fd5b6000601f19601f8301169050919050565b7f4e487b7100000000000000000000000000000000000000000000000000000000600052604160045260246000fd5b6200011182620000c6565b810181811067ffffffffffffffff82111715620001335762000132620000d7565b5b80604052505050565b600062000148620000a8565b905062000156828262000106565b919050565b600067ffffffffffffffff821115620001795762000178620000d7565b5b6200018482620000c6565b9050602081019050919050565b60005b83811015620001b157808201518184015260208101905062000194565b60008484015250505050565b6000620001d4620001ce846200015b565b6200013c565b905082815260208101848484011115620001f357620001f2620000c1565b5b6200020084828562000191565b509392505050565b600082601f83011262000220576200021f620000bc565b5b815162000232848260208601620001bd565b91505092915050565b60008060408385031215620002555762000254620000b2565b5b600083015167ffffffffffffffff811115620002765762000275620000b7565b5b620002848582860162000208565b925050602083015167ffffffffffffffff811115620002a857620002a7620000b7565b5b620002b68582860162000208565b9150509250929050565b600081519050919050565b7f4e487b7100000000000000000000000000000000000000000000000000000000600052602260045260246000fd5b600060028204905060018216806200031357607f821691505b602082108103620003295762000328620002cb565b5b50919050565b60008190508160005260206000209050919050565b60006020601f8301049050919050565b600082821b905092915050565b600060088302620003937fffffffffffffffffffffffffffffffffffffffffffffffffffffffffffffffff8262000354565b6200039f868362000354565b95508019841693508086168417925050509392505050565b6000819050919050565b6000819050919050565b6000620003ec620003e6620003e084620003b7565b620003c1565b620003b7565b9050919050565b6000819050919050565b6200040883620003cb565b620004206200041782620003f3565b84845462000361565b825550505050565b600090565b6200043762000428565b62000444818484620003fd565b505050565b5b818110156200046c57620004606000826200042d565b6001810190506200044a565b5050565b601f821115620004bb5762000485816200032f565b620004908462000344565b81016020851015620004a0578190505b620004b8620004af8562000344565b83018262000449565b50505b505050565b600082821c905092915050565b6000620004e060001984600802620004c0565b1980831691505092915050565b6000620004fb8383620004cd565b9150826002028217905092915050565b6200051682620002c0565b67ffffffffffffffff811115620005325762000531620000d7565b5b6200053e8254620002fa565b6200054b82828562000470565b600060209050601f8311600181146200058357600084156200056e578287015190505b6200057a8582620004ed565b865550620005ea565b601f19841662000593866200032f565b60005b82811015620005bd5784890151825560018201915060208501945060208101905062000596565b86831015620005dd5784890151620005d9601f891682620004cd565b8355505b6001600288020188555050505b505050505050565b6128f780620006026000396000f3fe608060405234801561001057600080fd5b506004361061010b5760003560e01c80636b867111116100a2578063a22cb46511610071578063a22cb465146102b8578063b88d4fde146102d4578063c87b56dd146102f0578063e5949b5d14610320578063e985e9c5146103525761010b565b80636b8671111461022e57806370a082311461024c5780638da5cb5b1461027c57806395d89b411461029a5761010b565b806318f01932116100de57806318f01932146101aa57806323b872dd146101c657806342842e0e146101e25780636352211e146101fe5761010b565b806301ffc9a71461011057806306fdde0314610140578063081812fc1461015e578063095ea7b31461018e575b600080fd5b61012a60048036038101906101259190611833565b610382565b604051610137919061187b565b60405180910390f35b610148610464565b6040516101559190611926565b60405180910390f35b6101786004803603810190610173919061197e565b6104f6565b60405161018591906119ec565b60405180910390f35b6101a860048036038101906101a39190611a33565b61053c565b005b6101c460048036038101906101bf9190611ba8565b610653565b005b6101e060048036038101906101db9190611c04565b6106ce565b005b6101fc60048036038101906101f79190611c04565b61072e565b005b6102186004803603810190610213919061197e565b61074e565b60405161022591906119ec565b60405180910390f35b6102366107d4565b6040516102439190611c66565b60405180910390f35b61026660048036038101906102619190611c81565b6107da565b6040516102739190611c66565b60405180910390f35b610284610891565b60405161029191906119ec565b60405180910390f35b6102a26108b7565b6040516102af9190611926565b60405180910390f35b6102d260048036038101906102cd9190611cda565b610949565b005b6102ee60048036038101906102e99190611dbb565b61095f565b005b61030a6004803603810190610305919061197e565b6109c1565b6040516103179190611926565b60405180910390f35b61033a6004803603810190610335919061197e565b610a29565b60405161034993929190611e3e565b60405180910390f35b61036c60048036038101906103679190611e7c565b610adb565b604051610379919061187b565b60405180910390f35b60007f80ac58cd000000000000000000000000000000000000000000000000000000007bffffffffffffffffffffffffffffffffffffffffffffffffffffffff1916827bffffffffffffffffffffffffffffffffffffffffffffffffffffffff1916148061044d57507f5b5e139f000000000000000000000000000000000000000000000000000000007bffffffffffffffffffffffffffffffffffffffffffffffffffffffff1916827bffffffffffffffffffffffffffffffffffffffffffffffffffffffff1916145b8061045d575061045c82610b6f565b5b9050919050565b60606000805461047390611eeb565b80601f016020809104026020016040519081016040528092919081815260200182805461049f90611eeb565b80156104ec5780601f106104c1576101008083540402835291602001916104ec565b820191906000526020600020905b8154815290600101906020018083116104cf57829003601f168201915b5050505050905090565b600061050182610bd9565b6004600083815260200190815260200160002060009054906101000a900473ffffffffffffffffffffffffffffffffffffffff169050919050565b60006105478261074e565b90508073ffffffffffffffffffffffffffffffffffffffff168373ffffffffffffffffffffffffffffffffffffffff16036105b7576040517f08c379a00000000000000000000000000000000000000000000000000000000081526004016105ae90611f8e565b60405180910390fd5b8073ffffffffffffffffffffffffffffffffffffffff166105d6610c24565b73ffffffffffffffffffffffffffffffffffffffff1614806106055750610604816105ff610c24565b610adb565b5b610644576040517f08c379a000000000000000000000000000000000000000000000000000000000815260040161063b90612020565b60405180910390fd5b61064e8383610c2c565b505050565b600660008154809291906106669061206f565b919050555060405180606001604052806006548152602001838152602001828152506008600060065481526020019081526020016000206000820151816000015560208201518160010190816106bc9190612263565b50604082015181600201559050505050565b6106df6106d9610c24565b82610ce5565b61071e576040517f08c379a0000000000000000000000000000000000000000000000000000000008152600401610715906123a7565b60405180910390fd5b610729838383610d7a565b505050565b6107498383836040518060200160405280600081525061095f565b505050565b60008061075a83611073565b9050600073ffffffffffffffffffffffffffffffffffffffff168173ffffffffffffffffffffffffffffffffffffffff16036107cb576040517f08c379a00000000000000000000000000000000000000000000000000000000081526004016107c290612413565b60405180910390fd5b80915050919050565b60065481565b60008073ffffffffffffffffffffffffffffffffffffffff168273ffffffffffffffffffffffffffffffffffffffff160361084a576040517f08c379a0000000000000000000000000000000000000000000000000000000008152600401610841906124a5565b60405180910390fd5b600360008373ffffffffffffffffffffffffffffffffffffffff1673ffffffffffffffffffffffffffffffffffffffff168152602001908152602001600020549050919050565b600760009054906101000a900473ffffffffffffffffffffffffffffffffffffffff1681565b6060600180546108c690611eeb565b80601f01602080910402602001604051908101604052809291908181526020018280546108f290611eeb565b801561093f5780601f106109145761010080835404028352916020019161093f565b820191906000526020600020905b81548152906001019060200180831161092257829003601f168201915b5050505050905090565b61095b610954610c24565b83836110b0565b5050565b61097061096a610c24565b83610ce5565b6109af576040517f08c379a00000000000000000000000000000000000000000000000000000000081526004016109a6906123a7565b60405180910390fd5b6109bb8484848461121c565b50505050565b60606109cc82610bd9565b60006109d6611278565b905060008151116109f65760405180602001604052806000815250610a21565b80610a008461128f565b604051602001610a11929190612501565b6040516020818303038152906040525b915050919050565b6008602052806000526040600020600091509050806000015490806001018054610a5290611eeb565b80601f0160208091040260200160405190810160405280929190818152602001828054610a7e90611eeb565b8015610acb5780601f10610aa057610100808354040283529160200191610acb565b820191906000526020600020905b815481529060010190602001808311610aae57829003601f168201915b5050505050908060020154905083565b6000600560008473ffffffffffffffffffffffffffffffffffffffff1673ffffffffffffffffffffffffffffffffffffffff16815260200190815260200160002060008373ffffffffffffffffffffffffffffffffffffffff1673ffffffffffffffffffffffffffffffffffffffff16815260200190815260200160002060009054906101000a900460ff16905092915050565b60007f01ffc9a7000000000000000000000000000000000000000000000000000000007bffffffffffffffffffffffffffffffffffffffffffffffffffffffff1916827bffffffffffffffffffffffffffffffffffffffffffffffffffffffff1916149050919050565b610be28161135d565b610c21576040517f08c379a0000000000000000000000000000000000000000000000000000000008152600401610c1890612413565b60405180910390fd5b50565b600033905090565b816004600083815260200190815260200160002060006101000a81548173ffffffffffffffffffffffffffffffffffffffff021916908373ffffffffffffffffffffffffffffffffffffffff160217905550808273ffffffffffffffffffffffffffffffffffffffff16610c9f8361074e565b73ffffffffffffffffffffffffffffffffffffffff167f8c5be1e5ebec7d5bd14f71427d1e84f3dd0314c0f7b2291e5b200ac8c7c3b92560405160405180910390a45050565b600080610cf18361074e565b90508073ffffffffffffffffffffffffffffffffffffffff168473ffffffffffffffffffffffffffffffffffffffff161480610d335750610d328185610adb565b5b80610d7157508373ffffffffffffffffffffffffffffffffffffffff16610d59846104f6565b73ffffffffffffffffffffffffffffffffffffffff16145b91505092915050565b8273ffffffffffffffffffffffffffffffffffffffff16610d9a8261074e565b73ffffffffffffffffffffffffffffffffffffffff1614610df0576040517f08c379a0000000000000000000000000000000000000000000000000000000008152600401610de790612597565b60405180910390fd5b600073ffffffffffffffffffffffffffffffffffffffff168273ffffffffffffffffffffffffffffffffffffffff1603610e5f576040517f08c379a0000000000000000000000000000000000000000000000000000000008152600401610e5690612629565b60405180910390fd5b610e6c838383600161139e565b8273ffffffffffffffffffffffffffffffffffffffff16610e8c8261074e565b73ffffffffffffffffffffffffffffffffffffffff1614610ee2576040517f08c379a0000000000000000000000000000000000000000000000000000000008152600401610ed990612597565b60405180910390fd5b6004600082815260200190815260200160002060006101000a81549073ffffffffffffffffffffffffffffffffffffffff02191690556001600360008573ffffffffffffffffffffffffffffffffffffffff1673ffffffffffffffffffffffffffffffffffffffff168152602001908152602001600020600082825403925050819055506001600360008473ffffffffffffffffffffffffffffffffffffffff1673ffffffffffffffffffffffffffffffffffffffff16815260200190815260200160002060008282540192505081905550816002600083815260200190815260200160002060006101000a81548173ffffffffffffffffffffffffffffffffffffffff021916908373ffffffffffffffffffffffffffffffffffffffff160217905550808273ffffffffffffffffffffffffffffffffffffffff168473ffffffffffffffffffffffffffffffffffffffff167fddf252ad1be2c89b69c2b068fc378daa952ba7f163c4a11628f55a4df523b3ef60405160405180910390a461106e83838360016114c4565b505050565b60006002600083815260200190815260200160002060009054906101000a900473ffffffffffffffffffffffffffffffffffffffff169050919050565b8173ffffffffffffffffffffffffffffffffffffffff168373ffffffffffffffffffffffffffffffffffffffff160361111e576040517f08c379a000000000000000000000000000000000000000000000000000000000815260040161111590612695565b60405180910390fd5b80600560008573ffffffffffffffffffffffffffffffffffffffff1673ffffffffffffffffffffffffffffffffffffffff16815260200190815260200160002060008473ffffffffffffffffffffffffffffffffffffffff1673ffffffffffffffffffffffffffffffffffffffff16815260200190815260200160002060006101000a81548160ff0219169083151502179055508173ffffffffffffffffffffffffffffffffffffffff168373ffffffffffffffffffffffffffffffffffffffff167f17307eab39ab6107e8899845ad3d59bd9653f200f220920489ca2b5937696c318360405161120f919061187b565b60405180910390a3505050565b611227848484610d7a565b611233848484846114ca565b611272576040517f08c379a000000000000000000000000000000000000000000000000000000000815260040161126990612727565b60405180910390fd5b50505050565b606060405180602001604052806000815250905090565b60606000600161129e84611651565b01905060008167ffffffffffffffff8111156112bd576112bc611a7d565b5b6040519080825280601f01601f1916602001820160405280156112ef5781602001600182028036833780820191505090505b509050600082602001820190505b600115611352578080600190039150507f3031323334353637383961626364656600000000000000000000000000000000600a86061a8153600a858161134657611345612747565b5b049450600085036112fd575b819350505050919050565b60008073ffffffffffffffffffffffffffffffffffffffff1661137f83611073565b73ffffffffffffffffffffffffffffffffffffffff1614159050919050565b60018111156114be57600073ffffffffffffffffffffffffffffffffffffffff168473ffffffffffffffffffffffffffffffffffffffff16146114325780600360008673ffffffffffffffffffffffffffffffffffffffff1673ffffffffffffffffffffffffffffffffffffffff168152602001908152602001600020600082825461142a9190612776565b925050819055505b600073ffffffffffffffffffffffffffffffffffffffff168373ffffffffffffffffffffffffffffffffffffffff16146114bd5780600360008573ffffffffffffffffffffffffffffffffffffffff1673ffffffffffffffffffffffffffffffffffffffff16815260200190815260200160002060008282546114b591906127aa565b925050819055505b5b50505050565b50505050565b60006114eb8473ffffffffffffffffffffffffffffffffffffffff166117a4565b15611644578373ffffffffffffffffffffffffffffffffffffffff1663150b7a02611514610c24565b8786866040518563ffffffff1660e01b81526004016115369493929190612833565b6020604051808303816000875af192505050801561157257506040513d601f19601f8201168201806040525081019061156f9190612894565b60015b6115f4573d80600081146115a2576040519150601f19603f3d011682016040523d82523d6000602084013e6115a7565b606091505b5060008151036115ec576040517f08c379a00000000000000000000000000000000000000000000000000000000081526004016115e390612727565b60405180910390fd5b805181602001fd5b63150b7a0260e01b7bffffffffffffffffffffffffffffffffffffffffffffffffffffffff1916817bffffffffffffffffffffffffffffffffffffffffffffffffffffffff191614915050611649565b600190505b949350505050565b600080600090507a184f03e93ff9f4daa797ed6e38ed64bf6a1f01000000000000000083106116af577a184f03e93ff9f4daa797ed6e38ed64bf6a1f01000000000000000083816116a5576116a4612747565b5b0492506040810190505b6d04ee2d6d415b85acef810000000083106116ec576d04ee2d6d415b85acef810000000083816116e2576116e1612747565b5b0492506020810190505b662386f26fc10000831061171b57662386f26fc10000838161171157611710612747565b5b0492506010810190505b6305f5e1008310611744576305f5e100838161173a57611739612747565b5b0492506008810190505b612710831061176957612710838161175f5761175e612747565b5b0492506004810190505b6064831061178c576064838161178257611781612747565b5b0492506002810190505b600a831061179b576001810190505b80915050919050565b6000808273ffffffffffffffffffffffffffffffffffffffff163b119050919050565b6000604051905090565b600080fd5b600080fd5b60007fffffffff0000000000000000000000000000000000000000000000000000000082169050919050565b611810816117db565b811461181b57600080fd5b50565b60008135905061182d81611807565b92915050565b600060208284031215611849576118486117d1565b5b60006118578482850161181e565b91505092915050565b60008115159050919050565b61187581611860565b82525050565b6000602082019050611890600083018461186c565b92915050565b600081519050919050565b600082825260208201905092915050565b60005b838110156118d05780820151818401526020810190506118b5565b60008484015250505050565b6000601f19601f8301169050919050565b60006118f882611896565b61190281856118a1565b93506119128185602086016118b2565b61191b816118dc565b840191505092915050565b6000602082019050818103600083015261194081846118ed565b905092915050565b6000819050919050565b61195b81611948565b811461196657600080fd5b50565b60008135905061197881611952565b92915050565b600060208284031215611994576119936117d1565b5b60006119a284828501611969565b91505092915050565b600073ffffffffffffffffffffffffffffffffffffffff82169050919050565b60006119d6826119ab565b9050919050565b6119e6816119cb565b82525050565b6000602082019050611a0160008301846119dd565b92915050565b611a10816119cb565b8114611a1b57600080fd5b50565b600081359050611a2d81611a07565b92915050565b60008060408385031215611a4a57611a496117d1565b5b6000611a5885828601611a1e565b9250506020611a6985828601611969565b9150509250929050565b600080fd5b600080fd5b7f4e487b7100000000000000000000000000000000000000000000000000000000600052604160045260246000fd5b611ab5826118dc565b810181811067ffffffffffffffff82111715611ad457611ad3611a7d565b5b80604052505050565b6000611ae76117c7565b9050611af38282611aac565b919050565b600067ffffffffffffffff821115611b1357611b12611a7d565b5b611b1c826118dc565b9050602081019050919050565b82818337600083830152505050565b6000611b4b611b4684611af8565b611add565b905082815260208101848484011115611b6757611b66611a78565b5b611b72848285611b29565b509392505050565b600082601f830112611b8f57611b8e611a73565b5b8135611b9f848260208601611b38565b91505092915050565b60008060408385031215611bbf57611bbe6117d1565b5b600083013567ffffffffffffffff811115611bdd57611bdc6117d6565b5b611be985828601611b7a565b9250506020611bfa85828601611969565b9150509250929050565b600080600060608486031215611c1d57611c1c6117d1565b5b6000611c2b86828701611a1e565b9350506020611c3c86828701611a1e565b9250506040611c4d86828701611969565b9150509250925092565b611c6081611948565b82525050565b6000602082019050611c7b6000830184611c57565b92915050565b600060208284031215611c9757611c966117d1565b5b6000611ca584828501611a1e565b91505092915050565b611cb781611860565b8114611cc257600080fd5b50565b600081359050611cd481611cae565b92915050565b60008060408385031215611cf157611cf06117d1565b5b6000611cff85828601611a1e565b9250506020611d1085828601611cc5565b9150509250929050565b600067ffffffffffffffff821115611d3557611d34611a7d565b5b611d3e826118dc565b9050602081019050919050565b6000611d5e611d5984611d1a565b611add565b905082815260208101848484011115611d7a57611d79611a78565b5b611d85848285611b29565b509392505050565b600082601f830112611da257611da1611a73565b5b8135611db2848260208601611d4b565b91505092915050565b60008060008060808587031215611dd557611dd46117d1565b5b6000611de387828801611a1e565b9450506020611df487828801611a1e565b9350506040611e0587828801611969565b925050606085013567ffffffffffffffff811115611e2657611e256117d6565b5b611e3287828801611d8d565b91505092959194509250565b6000606082019050611e536000830186611c57565b8181036020830152611e6581856118ed565b9050611e746040830184611c57565b949350505050565b60008060408385031215611e9357611e926117d1565b5b6000611ea185828601611a1e565b9250506020611eb285828601611a1e565b9150509250929050565b7f4e487b7100000000000000000000000000000000000000000000000000000000600052602260045260246000fd5b60006002820490506001821680611f0357607f821691505b602082108103611f1657611f15611ebc565b5b50919050565b7f4552433732313a20617070726f76616c20746f2063757272656e74206f776e6560008201527f7200000000000000000000000000000000000000000000000000000000000000602082015250565b6000611f786021836118a1565b9150611f8382611f1c565b604082019050919050565b60006020820190508181036000830152611fa781611f6b565b9050919050565b7f4552433732313a20617070726f76652063616c6c6572206973206e6f7420746f60008201527f6b656e206f776e6572206f7220617070726f76656420666f7220616c6c000000602082015250565b600061200a603d836118a1565b915061201582611fae565b604082019050919050565b6000602082019050818103600083015261203981611ffd565b9050919050565b7f4e487b7100000000000000000000000000000000000000000000000000000000600052601160045260246000fd5b600061207a82611948565b91507fffffffffffffffffffffffffffffffffffffffffffffffffffffffffffffffff82036120ac576120ab612040565b5b600182019050919050565b60008190508160005260206000209050919050565b60006020601f8301049050919050565b600082821b905092915050565b6000600883026121197fffffffffffffffffffffffffffffffffffffffffffffffffffffffffffffffff826120dc565b61212386836120dc565b95508019841693508086168417925050509392505050565b6000819050919050565b600061216061215b61215684611948565b61213b565b611948565b9050919050565b6000819050919050565b61217a83612145565b61218e61218682612167565b8484546120e9565b825550505050565b600090565b6121a3612196565b6121ae818484612171565b505050565b5b818110156121d2576121c760008261219b565b6001810190506121b4565b5050565b601f821115612217576121e8816120b7565b6121f1846120cc565b81016020851015612200578190505b61221461220c856120cc565b8301826121b3565b50505b505050565b600082821c905092915050565b600061223a6000198460080261221c565b1980831691505092915050565b60006122538383612229565b9150826002028217905092915050565b61226c82611896565b67ffffffffffffffff81111561228557612284611a7d565b5b61228f8254611eeb565b61229a8282856121d6565b600060209050601f8311600181146122cd57600084156122bb578287015190505b6122c58582612247565b86555061232d565b601f1984166122db866120b7565b60005b82811015612303578489015182556001820191506020850194506020810190506122de565b86831015612320578489015161231c601f891682612229565b8355505b6001600288020188555050505b505050505050565b7f4552433732313a2063616c6c6572206973206e6f7420746f6b656e206f776e6560008201527f72206f7220617070726f76656400000000000000000000000000000000000000602082015250565b6000612391602d836118a1565b915061239c82612335565b604082019050919050565b600060208201905081810360008301526123c081612384565b9050919050565b7f4552433732313a20696e76616c696420746f6b656e2049440000000000000000600082015250565b60006123fd6018836118a1565b9150612408826123c7565b602082019050919050565b6000602082019050818103600083015261242c816123f0565b9050919050565b7f4552433732313a2061646472657373207a65726f206973206e6f74206120766160008201527f6c6964206f776e65720000000000000000000000000000000000000000000000602082015250565b600061248f6029836118a1565b915061249a82612433565b604082019050919050565b600060208201905081810360008301526124be81612482565b9050919050565b600081905092915050565b60006124db82611896565b6124e581856124c5565b93506124f58185602086016118b2565b80840191505092915050565b600061250d82856124d0565b915061251982846124d0565b91508190509392505050565b7f4552433732313a207472616e736665722066726f6d20696e636f72726563742060008201527f6f776e6572000000000000000000000000000000000000000000000000000000602082015250565b60006125816025836118a1565b915061258c82612525565b604082019050919050565b600060208201905081810360008301526125b081612574565b9050919050565b7f4552433732313a207472616e7366657220746f20746865207a65726f2061646460008201527f7265737300000000000000000000000000000000000000000000000000000000602082015250565b60006126136024836118a1565b915061261e826125b7565b604082019050919050565b6000602082019050818103600083015261264281612606565b9050919050565b7f4552433732313a20617070726f766520746f2063616c6c657200000000000000600082015250565b600061267f6019836118a1565b915061268a82612649565b602082019050919050565b600060208201905081810360008301526126ae81612672565b9050919050565b7f4552433732313a207472616e7366657220746f206e6f6e20455243373231526560008201527f63656976657220696d706c656d656e7465720000000000000000000000000000602082015250565b60006127116032836118a1565b915061271c826126b5565b604082019050919050565b6000602082019050818103600083015261274081612704565b9050919050565b7f4e487b7100000000000000000000000000000000000000000000000000000000600052601260045260246000fd5b600061278182611948565b915061278c83611948565b92508282039050818111156127a4576127a3612040565b5b92915050565b60006127b582611948565b91506127c083611948565b92508282019050808211156127d8576127d7612040565b5b92915050565b600081519050919050565b600082825260208201905092915050565b6000612805826127de565b61280f81856127e9565b935061281f8185602086016118b2565b612828816118dc565b840191505092915050565b600060808201905061284860008301876119dd565b61285560208301866119dd565b6128626040830185611c57565b818103606083015261287481846127fa565b905095945050505050565b60008151905061288e81611807565b92915050565b6000602082840312156128aa576128a96117d1565b5b60006128b88482850161287f565b9150509291505056fea2646970667358221220a11fd41c8fb9abcca25b74dca01ac5602b7ed85a485b9f10237077c91c82f2a764736f6c63430008110033",
  "linkReferences": {},
  "deployedLinkReferences": {}
}